:020000040800F2
:1000000000000220E1140008A1050008A305000873
:10001000A5050008A7050008A905000800000000C4
:10002000000000000000000000000000AB05000818
:10003000AD05000800000000AF050008B10500088C
:100040003115000831150008311500083115000878
:100050003115000831150008311500083115000868
:100060003115000831150008311500083115000858
:100070003115000831150008311500083115000848
:100080003115000831150008311500080000000086
:100090000000000000000000000000003115000812
:1000A0003115000831150008311500083115000818
:1000B0003115000831150008B90500083115000890
:1000C00031150008311500083115000831150008F8
:1000D0003115000831150008311500080000000036
:1000E0003115000831150008311500080000000026
:1000F00000000000000000000000000031150008B2
:100100000000000031150008311500083115000805
:1001100000000000000000000000000000000000DF
:100120003115000831150008311500083115000897
:100130003115000800000000000000000000000071
:100140000000000000000000000000003115000861
:100150003115000831150008311500083115000867
:1001600031150008311500080000000000000000F3
:10017000000000000000000000000000000000007F
:100180000000000031150008000000000000000021
:080190003115000831150008CB
:1001980053B94AB9002908BF00281CBF4FF0FF31E6
:1001A8004FF0FF3000F00CB8ADF1080C6DE904CE4B
:1001B80001F0E8F9DDF804E0DDE9022304B0704756
:1001C800704700BF0348044B834202D0034B03B17E
:1001D800184770470C0000200C00002000000000A9
:1001E8000548064B1B1AD90F01EBA301491002D091
:1001F800034B03B1184770470C0000200C00002087
:100208000000000010B5064C237843B9FFF7DAFF69
:10021800044B13B10448AFF300800123237010BDD1
:100228000C000020000000004818000808B5054B25
:100238001BB105490548AFF30080BDE80840FFF74A
:10024800CFBF00BF000000001000002048180008C1
:10025800F0B58BB00024059406940794089409948B
:1002680001942A4B1A6B42F004021A631A6B02F0CB
:1002780004020192019A02941A6B42F080021A63F6
:100288001A6B02F080020292029A03941A6B42F0EF
:1002980001021A631A6B02F001020392039A049492
:1002A8001A6B42F002021A631B6B03F002030493F9
:1002B800049B174F22464FF40051384601F011F8BD
:1002C800144D2246F821284601F00BF84FF400534C
:1002D8000593012606960794089405A9384600F068
:1002E80015FFF823059306960794089405A9284650
:1002F80000F00CFF4FF4405305930694079405A9AA
:10030800054800F003FF0BB0F0BD00BF0038024005
:1003180000080240000002400004024038B50D4BBE
:10032800834200D038BD0C4C2378013B03F01F03F7
:1003380023702178C943C90089B2084D0022284694
:1003480000F0CFFF21780122C900284600F0C9FF3C
:10035800E8E700BF2800002002000020000002405B
:1003680072B6FEE700B587B00023029303930493A7
:100378000593009301931448144A026042F27F5295
:1003880042608360124A128892B2C260036183613C
:1003980000F0C4FA90B94FF48053029302A90A48B6
:1003A80000F0F5FA60B90023009301936946064806
:1003B80000F06CFB30B907B05DF804FBFFF7D0FF25
:1003C800FFF7CEFFFFF7CCFF280000200008004011
:1003D8000000002000B595B03022002108A801F0E7
:1003E800C9F8002303930493059306930793019395
:1003F8001E4A116C41F080511164126C02F0805257
:100408000192019A02931A4A116841F4404111601D
:10041800126802F440420292029A022208920121D2
:100428000B9110210C910E920F931091C0231193F0
:1004380012920423139308A800F068FB88B90F23CD
:10044800039302230493002305934FF480520692EA
:100458000793032103A800F0A9FD20B915B05DF8A2
:1004680004FBFFF77DFFFFF77BFF00BF003802406A
:100478000070004008B500F0E5FFFFF7ABFFFFF79D
:10048800E7FEFFF76FFF1E4800F006F915E00122AE
:100498004FF400511B4800F067F830B11A4B1B8825
:1004A8009BB240F20642934220D8C82000F0F6FFE3
:1004B8004FF40051154800F01AFF01224FF4805103
:1004C800104800F051F80028E1D00F4B1B889BB270
:1004D8004FF6F9329342DAD80B4A13889BB203F2EB
:1004E80006439BB21380FFF73DFFDEE7064A1388F9
:1004F8009BB2A3F206439BB21380FFF733FFD4E706
:1005080028000020000402400000002000080240EB
:100518002DE9F84380460F46914600252E462C4685
:1005280006E00135EDB20646012000F0B7FF0134C0
:10053800042C09D83946404600F0CCFE0028F0D0FB
:100548000136F6B20025EFE7B9F1000F04D0022E0C
:1005580006D80020BDE8F883022D03D84846F9E7FD
:10056800FF20F7E7FF20F5E770B504460D4616466D
:10057800FFF7CEFF00B970BD3EB12946204600F016
:10058800A9FE0028F9D1FF20F5E72946204600F00A
:10059800A1FE0028F9D0F6E7FEE7FEE7FEE7FEE752
:1005A800FEE770477047704708B500F065FF08BD63
:1005B80008B5024800F0B0F808BD00BF28000020C8
:1005C80082B0002100910B4B5A6C42F480425A646D
:1005D8005A6C02F480420092009A01911A6C42F01F
:1005E80080521A641B6C03F080530193019B02B084
:1005F800704700BF0038024002680E4B9A4200D094
:10060800704700B583B00021019103F50C331A6CD3
:1006180042F004021A641B6C03F004030193019B6B
:100628000A461E2000F0C0FE1E2000F0CDFE03B0DA
:100638005DF804FB0008004010B4036A046A24F063
:1006480001040462846924F0F00C4CEA021223F0DD
:100658000A030B43826103625DF8044B704710B4D0
:10066800036A046A24F010040462846924F4704C58
:100678004CEA023223F0A00343EA011382610362C9
:100688005DF8044B7047836823F070030B4343F015
:10069800070383607047000090F83D30DBB2012B00
:1006A8002FD1022380F83D300268D36843F001035C
:1006B800D3600368154A934218D0B3F1804F15D020
:1006C800A2F57C42934211D002F5806293420DD08C
:1006D80002F58062934209D002F59A32934205D01E
:1006E8001A6842F001021A60002070479A6802F006
:1006F8000702062A07D01A6842F001021A60002091
:100708007047012070470020704700BF000001407B
:10071800704770477047704770B504460368DE68D5
:100728001D6915F0020F10D016F0020F0DD06FF0F2
:1007380002021A610123037703689B6913F0030F10
:100748005ED0FFF7E6FF0023237715F0040F12D0E1
:1007580016F0040F0FD023686FF004021A61022309
:10076800237723689B6913F4407F4FD02046FFF717
:10077800D0FF0023237715F0080F12D016F0080FCA
:100788000FD023686FF008021A61042323772368C7
:10079800DB6913F0030F40D02046FFF7BAFF0023B0
:1007A800237715F0100F12D016F0100F0FD0236812
:1007B8006FF010021A61082323772368DB6913F4AA
:1007C800407F31D02046FFF7A4FF0023237715F0A0
:1007D800010F02D016F0010F2DD115F0800F02D0B5
:1007E80016F0800F2FD115F0400F02D016F0400FF1
:1007F80031D115F0200F02D016F0200F33D170BD83
:10080800FFF786FF2046FFF785FF9CE72046FFF7A6
:100818007FFF2046FFF77EFFABE72046FFF778FF14
:100828002046FFF777FFBAE72046FFF771FF20461B
:10083800FFF770FFC9E723686FF001021A612046CD
:10084800FFF76CFDC9E723686FF080021A61204644
:1008580000F05BF9C7E723686FF040021A61204691
:10086800FFF759FFC5E723686FF020021A61204699
:1008780000F04AF9C3E700000368274A90420ED007
:10088800B0F1804F0BD0A2F57C42904207D002F520
:100898008062904203D002F58062904203D123F037
:1008A80070034A6813431C4A90421AD0B0F1804F33
:1008B80017D0A2F57C42904213D002F58062904294
:1008C8000FD002F5806290420BD002F59A32904226
:1008D80007D002F58062904203D002F58062904210
:1008E80003D123F44073CA68134323F080034A6991
:1008F80013438A68C2620A688262074A904207D034
:10090800026842F0040202600122426103607047FB
:100918000A690263F4E700BF0000014040B310B564
:10092800044690F83D30F3B1022384F83D30214667
:1009380051F8040BFFF7A0FF012384F8463084F830
:100948003E3084F83F3084F8403084F8413084F8F1
:10095800423084F8433084F8443084F8453084F8D1
:100968003D30002010BD80F83C30FFF745FEDBE746
:100978000120704710B4846824F47F4C42EA0322B3
:100988000A4342EA0C0282605DF8044B704790F813
:100998003C30012B78D010B50446012380F83C3058
:1009A800022380F83D300268936823F47F4323F0E4
:1009B800770393600B68602B4CD029D8402B54D018
:1009C8000CD9502B22D1CA6849680068FFF734FE59
:1009D80050212068FFF757FE002005E0202B0DD09E
:1009E80009D9302B0AD00120012384F83D30002397
:1009F80084F83C3010BD0BB1102B05D11946206886
:100A0800FFF741FE0020EFE70120EDE70120EBE7CB
:100A1800B3F5805F34D0B3F5005F0CD1CB684A687A
:100A280089680068FFF7A6FF2268936843F480434B
:100A380093600020D8E7702B24D1CB684A68896876
:100A48000068FFF797FF2268936843F07703936085
:100A58000020C9E7CA6849680068FFF700FE6021FE
:100A68002068FFF710FE0020BEE7CA6849680068E2
:100A7800FFF7E2FD40212068FFF705FE0020B3E7FD
:100A88000020B1E70120AFE70220704790F83C2032
:100A9800012A35D010B40346012280F83C200222F6
:100AA80080F83D2002685068946820F0700C08684F
:100AB80040EA0C0050601A681248824212D0B2F123
:100AC800804F0FD0A0F57C4082420BD000F58060AB
:100AD800824207D000F58060824203D000F59A3048
:100AE800824204D124F080044968214391600122A4
:100AF80083F83D20002083F83C005DF8044B7047E4
:100B0800022070470000014070477047002800F03D
:100B1800E08170B582B00446036813F0010F3BD042
:100B28009F4B9B6803F00C03042B2CD09C4B9B68B9
:100B380003F00C03082B21D06368B3F5803F4FD036
:100B4800B3F5A02F52D0964B1A6822F480321A605F
:100B58001A6822F480221A606368002B50D000F0D3
:100B680097FC05468E4B1B6813F4003F14D100F028
:100B78008FFC401B6428F5D90320B1E1884B5B68E2
:100B880013F4800FD8D0864B1B6813F4003F03D0B2
:100B98006368002B00F09F81236813F0020F54D084
:100BA8007F4B9B6813F00C0F3ED07D4B9B6803F086
:100BB8000C03082B33D0E368002B68D0794B012253
:100BC8001A6000F065FC0546754B1B6813F0020FB0
:100BD80054D100F05DFC401B0228F5D903207FE1C9
:100BE8006F4A136843F480331360B5E76C4B1A6897
:100BF80042F480221A601A6842F480321A60ABE725
:100C080000F046FC0546664B1B6813F4003FC3D052
:100C180000F03EFC401B6428F5D9032060E1604BDE
:100C28005B6813F4800FC6D15D4B1B6813F0020F8D
:100C380003D0E368012B40F05081594A136823F030
:100C4800F803216943EAC1031360236813F0080F0E
:100C580042D063696BB3534B0122C3F8802E00F076
:100C680017FC05464E4B5B6F13F0020F34D100F0B2
:100C78000FFC401B0228F5D9032031E1484A1368CC
:100C880023F0F803216943EAC1031360DDE7454B0C
:100C980000221A6000F0FCFB0546414B1B6813F06C
:100CA800020FD2D000F0F4FB401B0228F5D9032034
:100CB80016E13C4B0022C3F8802E00F0E9FB054604
:100CC800374B5B6F13F0020F06D000F0E1FB401BBF
:100CD8000228F5D9032003E1236813F0040F77D025
:100CE8002F4B1B6C13F0805F33D1002301932C4BE7
:100CF8001A6C42F080521A641B6C03F08053019303
:100D0800019B0125284B1B6813F4807F23D0A3681F
:100D1800012B34D0052B38D0214B1A6F22F0010259
:100D28001A671A6F22F004021A67A368002B3DD0D5
:100D380000F0AEFB06461A4B1B6F13F0020F46D1AC
:100D480000F0A6FB801B41F288339842F3D90320B8
:100D5800C6E00025D6E7144A136843F4807313608D
:100D680000F096FB0646104B1B6813F4807FCED12B
:100D780000F08EFB801B0228F5D90320B0E0084A5A
:100D8800136F43F001031367CFE7054B1A6F42F067
:100D980004021A671A6F42F001021A67C5E700BF1A
:100DA80000380240000047420070004000F070FB2D
:100DB8000646524B1B6F13F0020F08D000F068FB79
:100DC800801B41F288339842F3D9032088E0EDB9BB
:100DD800A369002B00F08380484A926802F00C0255
:100DE800082A51D0022B17D0454B00221A6600F072
:100DF8004FFB0446414B1B6813F0007F42D000F0C4
:100E080047FB001B0228F5D9032069E03B4A136C15
:100E180023F080531364DBE7394B00221A6600F095
:100E280037FB0546354B1B6813F0007F06D000F0F2
:100E38002FFB401B0228F5D9032051E0E369226A01
:100E48001343626A43EA8213A26A5208013A43EAE8
:100E58000243E26A43EA0263284A5360284B0122AC
:100E68001A6600F015FB0446244B1B6813F0007F3C
:100E780006D100F00DFB001B0228F5D903202FE056
:100E880000202DE000202BE0012B2BD01B4B5B68B2
:100E980003F48001E269914226D103F03F02216AFE
:100EA8008A4223D1616A47F6C0721A40B2EB811FA9
:100EB8001ED103F44031A26A5208013AB1EB024F45
:100EC80018D103F07063E26AB3EB026F14D100200B
:100ED80006E001207047012002E0012000E0002028
:100EE80002B070BD0120FBE70120F9E70120F7E718
:100EF8000120F5E70120F3E70120F1E7003802407F
:100F08000000474208B5264B9B6803F00C03042BEE
:100F180041D0082B41D1224B5A6802F03F025B684E
:100F280013F4800F12D01E4B5968C1F388111D4865
:100F38000023A1FB0001FFF72BF9194B5B68C3F3F2
:100F4800014301335B00B0FBF3F027E0144B586812
:100F5800C0F388104FEA401CBCEB000C6EEB0E0E81
:100F68004FEA8E1343EA9C634FEA8C11B1EB0C01F4
:100F780063EB0E03DB0043EA5173C90011EB000C6D
:100F880043F10003990200234FEA8C2041EA9C5167
:100F9800FFF7FEF8D1E7034800E0034808BD00BFAB
:100FA8000038024040787D010024F400002800F059
:100FB8009B8070B50D4604464F4B1B6803F0070332
:100FC8008B4208D2CBB24C4A1370136803F0070364
:100FD8008B4240F08B80236813F0020F17D013F078
:100FE800040F04D0454A936843F4E05393602368A0
:100FF80013F0080F04D0414A936843F460439360A8
:101008003E4A936823F0F003A1680B43936023687A
:1010180013F0010F32D06368012B21D09A1E012AE8
:1010280025D9364A126812F0020F61D033498A680E
:1010380022F0030213438B6000F02AFA06462F4B76
:101048009B6803F00C036268B3EB820F16D000F0C4
:101058001FFA801B41F288339842F0D9032042E0FE
:10106800264A126812F4003FE0D101203BE0234AEF
:10107800126812F0007FD9D1012034E01E4B1B68A2
:1010880003F00703AB4207D9EAB21B4B1A701B687F
:1010980003F00703AB422DD1236813F0040F06D0E9
:1010A800164A936823F4E053E1680B43936023687E
:1010B80013F0080F07D0114A936823F4604321699D
:1010C80043EAC1039360FFF71DFF0C4B9B68C3F312
:1010D80003130B4AD35CD8400A4B18600A4B1868B4
:1010E80000F08AF9002070BD012070470120FAE75E
:1010F8000120F8E70120F6E7003C024000380240F2
:1011080060180008080000200400002000230F2BAE
:1011180000F2D78070B582B065E085684FEA430E6B
:10112800032404FA0EF425EA0405CC6804FA0EF444
:101138002C438460446824EA02044A68C2F300121B
:101148009A40224342605CE0DC08083450F82420CE
:1011580003F00705AD004FF00F0E0EFA05FE22EA68
:101168000E0E0A69AA4042EA0E0240F824205CE00A
:10117800042200E0002202FA0EF22A430234514D02
:1011880045F82420504A94686FEA0C0224EA0C05BA
:101198004E6816F4801F01D04CEA04054A4CA5603D
:1011A800E46802EA04054E6816F4001F01D04CEA10
:1011B8000405454CE560646802EA04054E6816F4C7
:1011C800003F01D04CEA04053F4C6560246822408A
:1011D8004D6815F4803F01D04CEA04023A4C226075
:1011E80001330F2B6BD801229A400C6804EA020CD9
:1011F80032EA0404F4D14C6804F00304013C012CE5
:101208008BD94A6802F00302032A09D0C4685D003A
:101218000322AA4024EA02048A68AA402243C26040
:101228004A6802F00302022A8ED004684FEA430E8D
:10123800032202FA0EF224EA02044A6802F00302C8
:1012480002FA0EF2224302604A6812F4403FC7D005
:10125800002201921D4A546C44F480445464526C38
:1012680002F480420192019A9C08A51C154A52F882
:10127800255003F0030E4FEA8E0E0F2202FA0EF2EB
:1012880025EA0205124A90423FF474AF02F58062E3
:1012980090420ED002F5806290420CD002F5806236
:1012A80090420AD002F5806290423FF461AF072273
:1012B80061E701225FE702225DE703225BE702B0F4
:1012C80070BD704700380140003C014000380240C2
:1012D800000002400369194201D001207047002034
:1012E80070470AB181617047090481617047436999
:1012F80001EA030221EA030141EA024181617047E0
:10130800002807DB00F01F02400901239340024A2E
:1013180042F82030704700BF00E100E0002808DBF9
:101328000901C9B200F1604000F5614080F800137E
:10133800704700F00F000901C9B2014B19547047FA
:1013480014ED00E000B500F00700C0F1070CBCF197
:10135800040F28BF4FF0040C031D062B0FD9C31E22
:101368004FF0FF3E0EFA0CF021EA000199400EFA08
:1013780003FE22EA0E0241EA02005DF804FB0023A4
:10138800EEE70000074AD36823F4E0631B041B0C54
:10139800000200F4E060034343F0BF6343F400330A
:1013A800D360704700ED00E010B50446054BD868DF
:1013B800C0F30220FFF7C6FF01462046FFF7AEFF45
:1013C80010BD00BF00ED00E008B5FFF799FF08BDAC
:1013D8000138B0F1807F0BD24FF0E0235861054A05
:1013E800F02182F823100020986107221A617047C3
:1013F8000120704700ED00E010B504460E4B1A7846
:101408004FF47A73B3FBF2F30C4A1068B0FBF3F0B5
:10141800FFF7DEFF68B90F2C01D901200AE000228E
:1014280021464FF0FF30FFF7BFFF054B1C6000203F
:1014380000E0012010BD00BF0300002008000020CC
:101448000400002008B50B4B1A6842F400721A60B9
:101458001A6842F480621A601A6842F480721A604C
:101468000320FFF78FFF0F20FFF7C6FFFFF7A8F84D
:10147800002008BD003C0240034A1168034B1B785A
:101488000B441360704700BF700000200300002069
:10149800014B1868704700BF7000002038B504463B
:1014A800FFF7F6FF0546B4F1FF3F02D0044B1B7867
:1014B8001C44FFF7EDFF401BA042FAD338BD00BF24
:1014C80003000020034AD2F8883043F47003C2F8BE
:1014D8008830704700ED00E0DFF834D0FFF7F2FF06
:1014E8000C480D490D4A002302E0D458C450043377
:1014F800C4188C42F9D30A4A0A4C002301E013604D
:101508000432A242FBD300F011F8FEF7B3FF704794
:1015180000000220000000200C00002080180008B5
:101528000C00002074000020FEE7000070B50D4D8F
:101538000D4C641BA4100026A64209D10B4D0C4C7F
:1015480000F07EF9641BA4100026A64205D170BDE8
:1015580055F8043B98470136EEE755F8043B9847A1
:101568000136F2E77818000878180008781800089B
:101578007C18000802440346934200D1704703F8E0
:10158800011BF9E72DE9F047089D0C46002B4ED1C9
:1015980094468C458646B2FA82F262D94AB1C2F1C3
:1015A8002003914020FA03F30CFA02FC194300FAD5
:1015B80002FE4FEA1C471FFA8CF6B1FBF7F44FEA1C
:1015C8001E4307FB141143EA014304FB06F1994249
:1015D8000AD91CEB030304F1FF3080F01381994210
:1015E80040F21081023C6344591A1FFA8EF3B1FB92
:1015F800F7F007FB101143EA014300FB06F69E4291
:101608000AD91CEB030300F1FF3180F0FD809E42F4
:1016180040F2FA80634402389B1B40EA04400021F0
:101628001DB1D3400022C5E90032BDE8F0878B42E6
:1016380005D90DB1C5E9000100210846F5E7B3FA5F
:1016480083F1002946D1A34202D39042C0F0F18031
:10165800861A64EB03030120002DE6D0C5E9006378
:10166800E3E7002A40F09180A1EB0C044FEA1C4804
:101678001FFA8CF70121B4FBF8F64FEA1E4308FB6A
:10168800164443EA044307FB06F0984208D91CEBCA
:10169800030306F1FF3402D2984200F2CE802646B8
:1016A8001C1A1FFA8EF3B4FBF8F008FB104443EA47
:1016B800044300FB07F79F4208D91CEB030300F122
:1016C800FF3402D29F4200F2B1802046DB1B40EA81
:1016D8000640A5E7C1F120068B4022FA06F71F4312
:1016E80020FA06FC04FA01F343EA0C03F44000FA7A
:1016F80001F8380C4FEA1349B4FBF0FE1FFA87FCD7
:1017080000FB1E4449EA04440EFB0CF9A14502FA09
:1017180001F20AD93C190EF1FF3A80F08580A14503
:1017280040F28280AEF1020E3C44A4EB09041FFA99
:1017380083F9B4FBF0F300FB134449EA044403FBC8
:101748000CFCA44507D93C1903F1FF3068D2A44525
:1017580066D9023B3C4443EA0E40A0FB0293A4EB4B
:101768000C049C42CE469C4652D34FD055B1B8EBA0
:101778000E0364EB0C0404FA06F6CB40CC401E437F
:10178800C5E900640021BDE8F087C2F1200320FA12
:1017980003F10CFA02FC24FA03F394400C434FEAD9
:1017A8001C4800FA02FE1FFA8CF7B3FBF8F008FB9E
:1017B8001031230C43EA014300FB07F1994208D991
:1017C8001CEB030300F1FF362CD299422AD90238C8
:1017D80063445B1AA4B2B3FBF8F108FB113344EA83
:1017E800034401FB07F3A34208D91CEB040401F1ED
:1017F800FF3613D2A34211D902396444E41A41EAEC
:10180800004138E70446EFE6084605E7C845ADD28B
:10181800B9EB020E63EB070C0138A7E73146EDE799
:10182800034698E73046D4E7D6467EE76344023855
:101838004CE70646234608460EE7023E63442FE778
:10184800F8B500BFF8BC08BC9E467047F8B500BFA5
:08185800F8BC08BC9E46704775
:101860000000000000000000010203040607080950
:081870001CFDFF7F01000000D8
:04187800350200082D
:04187C000D02000851
:0C18800006040501100000000024F40024
:04000005080014E1FA
:00000001FF
